:100000000C9412010C9459010C9459010C9459014F
:100010000C9459010C9459010C9459010C945901F8
:100020000C9459010C9459010C94041C0C94D81C88
:100030000C9454140C9459010C9459010C945901CA
:100040000C9459010C9459010C9459010C945901C8
:100050000C9459010C94BA140C9459010C94590144
:100060000C9459010C9459010C9459010C945901A8
:100070000C9459010C9459010C9459010C94590198
:100080000C9459010C9459010C9459010C94590188
:100090000C9459010C9459010C9459010C94590178
:1000A0000C9459010C9459010C9459011D001B002A
:1000B0000403300000000C03410070006C00780065
:1000C000320000001003410070006C0079006100F4
:1000D0007200640000000403090409023B000201ED
:1000E00000A0FA0904000001030101000921110127
:1000F00000012240000705810308000A09040100ED
:10010000010300000009211101000122BC000705C4
:10011000820320000A1201100100000008E0E03014
:100120000001000102030105010902A10185020984
:1001300001A100050919012905150025019505757D
:10014000018102950175038101050109300931150D
:1001500081257F95027508810609381581257F95CF
:100160000175088106050C0A38021581257F950165
:1001700075088106C0C005010980A1018503190128
:100180002AB700150126B700950175108100C0053A
:100190000C0901A101850419012AA002150126A05C
:1001A00002950175108100C005010906A1018505B0
:1001B000050719E029E71500250195087501810259
:1001C0000507190029EF1500250195F07501810239
:1001D0000508190129059505750191029501750319
:1001E0009101C005010906A101050719E029E715DC
:1001F00000250195087501810295017508810105A9
:1002000007190029FF150026FF00950675088100D3
:1002100005081901290595057501910295017503D8
:100220009101C00011241FBECFEFDAE0DEBFCDBFC9
:1002300004B603FE27C08091410290914202A09132
:100240004302B09144028730904BA740B04BD1F4A9
:100250001092410210924202109243021092440204
:1002600014BE84B7877F84BF0FB6F894A895809199
:100270006000886180936000109260000FBEE0E033
:10028000F8E3099511E0A0E0B1E0E8E4FEE302C084
:1002900005900D92A837B107D9F722E0A8E7B1E0A1
:1002A00001C01D92A134B207E1F70E9435190C94E8
:1002B000FA1E0C940000CF93DF939C013A95211510
:1002C0003F4168F5EC01CC27D170DC01AA27B27060
:1002D000AC01442754709C012227387094FF11C050
:1002E00080E1CD2B09F480E0AB2B09F08062452B37
:1002F00009F08064232B09F08068FB01DF91CF9126
:10030000099481E0CD2B09F480E0AB2B09F08260E9
:10031000452B09F08460232B81F38860EECFDF91B9
:10032000CF910895CF93DF93EC01805E91090897F8
:1003300020F069E27CE0209711F46CE979E0CE01CD
:100340000E945B018C2FDF91CF910C940C09CF930D
:10035000DF93EC010E945A09CE01805E9109089753
:1003600020F060E37CE0209711F463EA79E0CE01AD
:10037000DF91CF910C945B01CF93DF93EC010E944E
:100380009201CE01DF91CF910C94A70181E00895F5
:1003900081E008950C94C80108950C94CC011F933A
:1003A000CF93DF9300D000D00F92CDB7DEB7498353
:1003B0005A836B832091870189819A8121111BC007
:1003C0006623A9F00E945E11182F682F89819A81F7
:1003D0000E940D1169817A81812F0F900F900F90EB
:1003E0000F900F90DF91CF911F910C9490020E947B
:1003F0003811182FEFCF0E945E1169817A81EDCFFD
:10040000FC01408151816281738184810C94CF0110
:10041000CF93DF93EC010E940002BE01DF91CF91E8
:100420000C94CD010E94A512811102C00E944213BA
:100430000E943B050C9498040C949B04282F2F7069
:1004400041F0822F90E02A3010F44D9608950697DF
:10045000089587E290E0089508950C942C0281E0BD
:1004600008950C942F02CF93C82F0E942D028C2F39
:10047000CF910C94310208950E944D0C0E943B02D2
:100480002FEF84E39CE0215080409040E1F700C0D2
:1004900000000C94DE140F931F93CF93DF93EC01B5
:1004A0000E9400028C01BE010E94CA01882359F1FA
:1004B000BE01C8010E94B205882329F1BE01C8010E
:1004C0000E9454068823F9F0BE01C8010E949506D7
:1004D0008823C9F0BE01C8010E94B807882399F09B
:1004E0008A81882339F001158CE5180751F00E3DFB
:1004F0001C4579F0CE01DF91CF911F910F910C94A3
:10050000C6010E943C0280E0DF91CF911F910F91C4
:1005100008950E944213F7CF90E080E00895089577
:10052000272F280F3327331FF901EE0FFF1FE60F88
:10053000F11DEE0FFF1FE455FF4F85919491089533
:10054000FC01EE0FFF1FE055FF4F85919491089538
:10055000CF93DF930E9490020E94BD03EC018115AE
:1005600020E5920708F042C0811530E4930708F0B7
:10057000BDC0883E910528F5803E910508F09DC0DC
:10058000883A910588F4853A910508F08FC081304A
:10059000910509F492C0009709F48FC0049708F000
:1005A0008CC0D0E0C0E089C08F3B910508F489C0C1
:1005B000805C9109C03CD105A0F30E94A002EC012F
:1005C0007CC08115904250F4C11581E0D80708F035
:1005D00074C0C03FD10528F3D0656FC0C11590E34A
:1005E000D90708F079C0CE019F70E7CF811525E5C6
:1005F000920758F5811534E5930708F0A6C08115D8
:1006000042E5940750F4C11581E5D80708F471C09C
:10061000DC2FCC27C16FD06A50C0982F9695969545
:100620009E0123703327C115D34508F07FC0C1E078
:10063000D0E002C0CC0FDD1F2A95E2F720E2929FA6
:10064000C0011124C82BD92B6FC0C11589E5D8076B
:10065000A8F4C11598E5D90708F07CC0C11526E5B6
:10066000D20708F09ECF8C2F0E945404C82FD0E0F0
:10067000DC2FCC27CC27DF71D0621FC0C1153AE533
:10068000D30708F46CC0CE0190568115904208F053
:1006900088CF8D2F8F710E94540490E0982F882767
:1006A00088279F719C012C2BE901E6CFC55AD0E029
:1006B000CD5BDE4FC881D0E0D064CE01DF91CF9119
:1006C0000895C85AD0E0CC0FDD1FCB5EDE4F0990F5
:1006D000D881C02DD464F1CFCE019927D3FF03C0B8
:1006E000EC01D86CEACFEC01D06CE7CFDF70D06AB8
:1006F000E4CFCE01E4E096958795EA95E1F7837023
:100700002C2F26952695237090E2299F9001112485
:10071000382B8C2F8370C1E0D0E002C0CC0FDD1FDE
:100720008A95E2F7C22BD32BDC68C7CFC1E0D0E0BB
:1007300002C0CC0FDD1F2A95E2F730E2939FC00183
:100740001124C82BD92BDA68B8CFD82FCC27C46F87
:10075000D06AB3CFDC2FCC27C06FD06AAECF8C2F3E
:100760008F700E94540434E0D695C7953A95E1F70E
:10077000CF709C2FEC01D069A0CF82389105B1F1E8
:10078000B0F48133910509F475C048F489329105BC
:1007900009F469C08A32910509F473C0089585335C
:1007A000910509F459C08933910501F10895833EFB
:1007B0009105A9F138F4803E9105F9F0823E91054A
:1007C00049F10895863E9105A9F1873E9105C9F149
:1007D000843E910519F52091330221FF1FC08091BD
:1007E000320284FD14C087EE90E008952091320219
:1007F0002370A1F080EE90E008952091320220FD58
:1008000047C03091330230FF09C024FF44C090E05C
:1008100080E004C02091320222FDF7CF089520919C
:10082000320222FD3BC03091330230FDE3CF24FF82
:10083000F5CFEDCF2091320223FFF0CF24FDE7CF9B
:10084000D2CF2091320223FD2CC03091330231FFF0
:10085000EECF84EE90E008952091320225FFDECFA6
:1008600089E290E008952091320225FFD7CF85E3F9
:1008700090E008952091320226FFD0CF8AE290E0E6
:1008800008952091320226FFC9CF81E390E00895B8
:1008900089E390E0089583EE90E0089582EE90E081
:1008A000089586EE90E008959091320292FF06C07E
:1008B000282F28712830F9F4877F846093FF06C0C1
:1008C000282F28712831F1F4877E8461209133022A
:1008D00020FF06C0382F38713830D9F4877F816007
:1008E00021FF06C0282F28712831D1F4877E81612D
:1008F00094FD877E0895282F24712430F9F68B7F8C
:100900008860DCCF282F2471243101F78B7E886129
:10091000DDCF382F3171313019F78E7F8860E0CF0D
:10092000282F2171213121F78E7E8861E1CF089532
:100930000C94970408950C949A04E82FF0E0EA5D73
:10094000FD4F80810895089580EA8A95F1F7089512
:100950005198599A25982D9A53985B9A109225028E
:100960001092260281E00E94EF040C941202CF93B1
:10097000DF93D091250210922502519A59980E9436
:10098000A40483B190E025E0959587952A95E1F739
:10099000809590958170992790912502892B80935D
:1009A00025024B991AC092E0892B80932502519819
:1009B000599AC1E0809125028D1301C0C0E02C2F0F
:1009C00041E066E272E085E292E00E94F0040E945B
:1009D0001C028C2FDF91CF91089590E0E5CF089510
:1009E000FF920F931F93CF93DF93F82E092F162FAB
:1009F000D72FC42F222349F081E080937A010E94EF
:100A00008414909379018093780180917A018823EE
:100A1000A1F080917801909179010E94901406973D
:100A200060F0EF2DF02FA12FBD2FCE0FDF2FD11DA6
:100A3000EC17FD0741F410927A01DF91CF911F91DD
:100A40000F91FF90089581918D93F2CFCF93DF9313
:100A5000EC0197FF0CC0FB018281882341F00E94CA
:100A60005105CE019F770E9495050E947D0581E08A
:100A7000DF91CF9108958CE090E00E94B81E90E045
:100A8000B0E0A0E08093270290932802A09329026F
:100A9000B0932A020895609127028CE090E00C94B4
:100AA000C61E0E94F31180932B020E9406128091B1
:100AB0002702813089F0882359F0823091F0843008
:100AC000B9F08FE39CE90197F1F700C000000895A9
:100AD00082EE0E940C09F5CF88E193E00E94BC01F0
:100AE000F0CF82EE0E940C0987E50E948909E9CFC8
:100AF00086EE0E94890988E1F8CF80912702813033
:100B000071F0882341F0823031F0843061F08091BF
:100B10002B020C94031282EE0E945A09F8CF8CE249
:100B20000E948909F4CF88E2FBCF0F931F93CF93E4
:100B3000DF938C01CCE0D0E0C8010C2E02C096956A
:100B400087950A94E2F78F700E941E020E9489091D
:100B50002497CC3F8FEFD80779F7DF91CF911F9182
:100B60000F9108950F931F93CF93DF93EC018B01A7
:100B7000FB018281882371F0C33EFCE5DF0719F198
:100B800088F4C13EECE5DE07C9F081E0C23EFCE539
:100B9000DF0789F0B801CE01DF91CF911F910F914E
:100BA0000C942605C43E8CE5D80779F084E0C53E58
:100BB000ECE5DE0779F78093270202C01092270246
:100BC0000E944B05E7CF82E0F6CF83E0F4CF0F938E
:100BD0001F93CF93DF93C62FD42F022FFC01828166
:100BE0008823C9F060937D010E94841490937C0156
:100BF00080937B0180E28C0F883008F050C0C77072
:100C000081E001C0880FCA95EAF7DF91CF911F916B
:100C10000F910C949C0910917D01161335C08091A1
:100C20007B0190917C010E949014883C910560F5B5
:100C3000C0E2CD0F1D17B9F080E2810F883040F47B
:100C4000177081E001C0880F1A95EAF70E94A30986
:100C5000C83048F481E09D2F977001C0880F9A95A5
:100C6000EAF70E949C09802F0E948909C830B8F4D5
:100C7000D77081E001C0880FDA95EAF7DF91CF9154
:100C80001F910F910C94A30980E28C0F883038F4E7
:100C9000C77081E001C0880FCA95EAF7EFCFDF91F6
:100CA000CF911F910F9108959C01CB01233F4CE5FB
:100CB000340731F190F4283DFCE53F07E9F0293D88
:100CC0004CE5340769F1273D3C4579F426E241EED5
:100CD00061EE0E94E70580E00895253FFCE53F07AF
:100CE000B9F090F0263F3C45B9F0FC0182818823A1
:100CF000D1F010927D01089527E245EE65EEE9CF2F
:100D000026E241EE60EEE5CF27E245EE64EEE1CF6C
:100D100026E241EE62EEDDCF27E245EE66EED9CF68
:100D200028E241E0EBCF81E00895CF93DF93EC011F
:100D3000FB018281882309F419C1C230FCE5DF0779
:100D4000C0F1C6319CE5D90730F09E012A5F3C45D1
:100D50002930310570F50E94B812909333028093C8
:100D60003202C031ECE5DE0709F4CFC008F05BC009
:100D7000C8308CE5D80709F4B6C088F5C430ECE576
:100D8000DE0709F4A8C0C0F4C2308CE5D80709F426
:100D90009CC0809132028260C330DC4509F498C067
:100DA00080913202909133020E94C6120E944D0C33
:100DB00080E0DF91CF910895809132028061C6304A
:100DC000ECE5DE0709F484C0809132028860C73008
:100DD000DC4508F47DC080913202806279C0CC305D
:100DE0008CE5D80709F489C070F4809132028C60D8
:100DF000CA30ECE5DE0709F46BC008F478C08091D6
:100E000032028E7F65C0CE308CE5D80709F479C0F8
:100E1000809132028B7FCF30DC4508F459C080913D
:100E200032028F7E55C0CB3FECE5DE0709F457C098
:100E300030F5C3318CE5D80709F46FC078F4C131BF
:100E4000ECE5DE0709F465C0C231DC4509F0A8CF46
:100E50000E944D0C809132028F773AC0C5318CE5EB
:100E6000D80709F462C008F476C08091330281602B
:100E7000CA3FDC4509F094CF8093330291CFCF3F36
:100E8000FCE5DF0709F44DC088F4809133028D7FC3
:100E9000CD3F9CE5D90781F3809133028E7FCE3F11
:100EA000DC4550F3809133028360E6CFC130FDE52D
:100EB000DF0709F459C008F444C080E0C230DD45C2
:100EC00009F06ECF0E9444136BCF80913202816093
:100ED0008093320265CF809132028460F9CF809195
:100EE00033028260C9CF809132028064F1CF0E94C8
:100EF0004D0C809132028068EBCF809132028D7F61
:100F0000E7CF80913202877FE3CF809132028F7DDD
:100F1000DFCF809132028F7BDBCF80913202837FE3
:100F2000D7CF809133028C7FA7CF8091320282FB92
:100F3000992790F921E0922790FB82F990FB83F9A1
:100F4000C7CF80913302982F909591708E7F892B17
:100F500090FB81F991CF0E944D0C90913202892F24
:100F600097FB87F98058B4CF81E0ACCF81E021CFE7
:100F7000CF93DF93EB0186319C4511F50E94F3116D
:100F80009A81992399F08A7A91E009F490E09093FC
:100F90007E01811109C089E20E94CE110E94421295
:100FA00080E0DF91CF91089585E3F6CF80917E01B7
:100FB000811104C089E20E94D511F0CF85E3FBCFF7
:100FC00081E0EFCF90938401809383010895E091B5
:100FD0008301F0918401309721F00190F081E02DA0
:100FE000099480E00895E0918301F09184013097A5
:100FF00099F020911401222359F02091320227FF09
:1010000007C0DC012C9111962C93119725E02C93AD
:101010000280F381E02D09940895E0918301F0911D
:101020008401309739F022E0DC012C930480F581B3
:10103000E02D0994089520918101309182012817B3
:10104000390771F09093820180938101E0918301CF
:10105000F0918401309721F00680F781E02D09940A
:10106000089520917F01309180012817390771F090
:101070009093800180937F01E0918301F09184013E
:10108000309721F00084F185E02D0994089585B70B
:10109000806885BF85B7806885BF089508950895E5
:1010A0000C944E0808950C9452080E9447080E9420
:1010B0004F080C94500881E008950E947B140E9410
:1010C000A8040E94EF140C9453080F931F93CF931E
:1010D000DF93CDB7DEB72A970FB6F894DEBF0FBE09
:1010E000CDBF0E94B7040E945B0881112BC08FEF17
:1010F00089838A831B820E9484148160782F9D8358
:101100008C8349815A816B818D810E94DD080E9408
:101110007C160E94E70790918501891709F442C067
:101120000E94E707809385012A960FB6F894DEBFE8
:101130000FBECDBFDF91CF911F910F910C94330261
:1011400080E017C080E00E949D04082F1091860166
:10115000181769F28091F20181FD0E94A304812F8A
:101160008027182F117080FDEBCF81FFC0CF81E069
:1011700012E08E831F82012381E009F480E08887DA
:101180000E9484148160782F9A8789874E815F81BD
:1011900068858A850E94DD08809186018127809379
:1011A0008601B5CF2A960FB6F894DEBF0FBECDBF2D
:1011B000DF91CF911F910F910895CF93DF93CDB71A
:1011C000DEB72B970FB6F894DEBF0FBECDBF4F83AF
:1011D000588769877A878B871E821D8285E0FE018A
:1011E0003796DE01119601900D928A95E1F74981BB
:1011F0005A816B817C818D819E812B960FB6F894EC
:10120000DEBF0FBECDBFDF91CF910C94ED0EFC0180
:10121000808191810C94A011CF93C82F882309F469
:1012200047C08CEF8C0F813AA0F46C2F80910001A5
:10123000909101010E945D13882329F08C2F0E9458
:10124000D5110E9442128C2F0E94CE11CF910C9486
:10125000421280E28C0F883048F4C77081E001C0F0
:10126000880FCA95EAF70E94F611F0CFEBE5EC0F74
:10127000E33040F4F0E0EC58FE4F808190E0CF91F5
:101280000C941B08E8E5EC0FE73150F4F0E0EE0FAA
:10129000FF1FEA5BFE4F80819181CF910C94310852
:1012A000C03F30F08C2F0E948A15CF910C9471169C
:1012B000CF910895882361F19CEF980F913A20F423
:1012C0000E94D5110C94421290E2980F983050F47D
:1012D000877091E001C0990F8A95EAF7892F0E94E3
:1012E000FC11F0CF9BE5980F933020F490E080E064
:1012F0000C941B0898E5980F973120F490E080E05B
:101300000C943108803F20F00E94F2150C94711665
:101310000895CF93C82F0E940C09C93349F42FEFC9
:1013200087EE93E0215080409040E1F700C000003C
:101330008C2FCF910C945A09882321F00E94F6112A
:101340000C9442120895882321F00E94FC110C9401
:1013500042120895BF92CF92DF92EF92FF920F93C5
:101360001F93CF93DF936C01D62FC72FFC0105810C
:1013700002950F70128111110E9416120E94EC1139
:10138000E82E882371F01123B1F080E28D0F8830B0
:1013900090F082E00E948D120E94EC1191E0E82E04
:1013A000E926BC2EB2949FE0B922EB2DF0E0E45088
:1013B000F14E0C949E1EE12CF4CF0C2F0F70C07FC9
:1013C00011F00295007F1123A9F0002359F080E26B
:1013D0008D0F883010F0D11109C0802F0E94F611B6
:1013E0000E9442128D2F0E940C0914C0802F0E946F
:1013F0000912F6CF8D2F0E945A09002359F080E27E
:101400008D0F883010F0D1112CC0802F0E94FC115C
:101410000E9442122B2D2850330B2430310520F42A
:101420000E94E7070E943302EE2009F4D5C10E9412
:10143000E81180FDD1C1F60112820E94E2110E94E2
:101440007110C6010E940D0C0E94E211DF91CF9134
:101450001F910F91FF90EF90DF90CF90BF900C9471
:101460009210802F0E940F12D3CFFC2FFF70FF2EFF
:10147000C07FC03219F0F29480EFF822DD2369F0CA
:10148000D13049F1112391F1002351F1F601858109
:1014900080FFA8CF8F70858323C0112381F00111B5
:1014A00006C00E9429128F290E949C09B3CF0130E7
:1014B000C1F70E9429128F290E942F12ABCF011170
:1014C00006C00E9438128F2D0E94A309A3CF0130BD
:1014D00009F4A0CFF6CF112329F0063008F09ACFF7
:1014E0008F2DE2CF053008F095CFEDCF002359F3D3
:1014F000D93349F4FFEF27EE33E0F150204030407C
:10150000E1F700C000008D2F0E945A0983CF8C2F75
:1015100086958695837069F0813009F07BCF8D2F99
:101520009C2F9370111102C090E080E00E9431085E
:1015300071CF8D2F9C2F9370111102C090E080E02D
:101540000E941B0867CF112309F1D53F99F0D63FC0
:10155000B9F0D43F49F480912C0290912D02816022
:1015600090932D0280932C028D2F0E948A150E9449
:10157000711650CF80912C0290912D028260F0CF95
:1015800080912C0290912D028460EACFD53F89F0A2
:10159000D63FA9F0D43F49F480912C0290912D02BE
:1015A0008E7F90932D0280932C028D2F0E94F21536
:1015B000DECF80912C0290912D028D7FF2CF809111
:1015C0002C0290912D028B7FECCF8C2F837009F031
:1015D00041C011111FCF4D2F429546954770440FC2
:1015E000440F0D2F0F7010E030E020E0042E04C0F7
:1015F000000F111F221F331F0A94D2F760E070E022
:10160000CB01D4FF0FC06FE070E080E090E004C039
:10161000660F771F881F991F4A95D2F760957095BE
:1016200080959095C695C695C370602B712B822BC3
:10163000932BC23049F058F4C13019F00E942310A6
:10164000E9CE0E941110E6CE0E943510E3CE0E9432
:101650000F10E0CE8695112311F08C2F8170882316
:1016600009F4D8CE4D2F429546954770440F440F4C
:101670000D2F0F7010E030E020E0042E04C0000FAA
:10168000111F221F331F0A94D2F760E070E0CB01D4
:10169000D4FF0FC06FE070E080E090E004C0660F00
:1016A000771F881F991F4A95D2F76095709580958E
:1016B0009095C695C695C370602B712B822B932B8A
:1016C000C23049F058F4C13019F00E94E810A2CE9F
:1016D0000E94D6109FCE0E94FA109CCE0E944B1002
:1016E00099CECF70112329F08C2F0E9471108D2F6D
:1016F000DBCE8D2F0E94A3098C2F0E9492108ACEE0
:10170000D23F89F160F4D03FC9F0D13F29F11123D4
:1017100009F442C0011166CE8C2F8F7121C0D33FD6
:1017200039F1D43FA1F7112369F1CF718C2F0E94B9
:10173000711063E08C2F0E9478126CCE112341F05F
:10174000053008F067CE8C2F8F710E94B51062CEE5
:10175000063008F05FCEF7CF8C2F8F71112369F21E
:101760000E94711057CE8C2F8F711123C9F3C5CFF2
:10177000112329F08C2F8F710E945C104BCE0E9498
:10178000571048CE81E00E948D12023008F442CEFC
:1017900082E00E948D123ECE002359F0D93309F029
:1017A000B2CE8FEF97EEE3E081509040E040E1F75A
:1017B000A8CE8C2F8F71A1CF4C2F4F706D2FC601EB
:1017C0000E948C020E94870F25CE4C2F4F706D2FE8
:1017D000C6010E948F021ECEDF91CF911F910F9103
:1017E000FF90EF90DF90CF90BF9008950F931F93DD
:1017F000CF93DF93EC01688179818A810E94AA11DD
:101800008C010E940C110E940E10B801CE01DF91D4
:10181000CF911F910F910C94AA09CF93DF93EC0104
:101820008B819C81892B29F08881998189238F3F25
:1018300019F4DF91CF910895CE010E944B028823C5
:10184000C1F3CE010E94F60BCE01DF91CF910C9433
:101850000802882321F00E9409120C944212089574
:10186000882321F00E940F120C94421208950E94C6
:1018700016120E9426120E9442120E9496170E947F
:10188000711690E080E00E941B0890E080E00C94CC
:1018900031080E94DC110C94370C0E9406120C9443
:1018A000490CE92FE295EF70E250EE3070F4F0E071
:1018B000E45FF04E0C949E1E803F19F020F4883EA9
:1018C00020F481E00895843FE1F380E00895883EAC
:1018D000C0F3813FD1F7F5CF93FB882780F90895B6
:1018E0000E94A0110C94510CCF93DF9300D000D034
:1018F0000F92CDB7DEB70F900F900F900F900F9013
:10190000DF91CF910895CF93DF9300D000D000D026
:10191000CDB7DEB726960FB6F894DEBF0FBECDBFAB
:10192000DF91CF9108951F93CF93DF93C0918801EA
:1019300016E0809189018C1304C0DF91CF911F9133
:101940000895D0E01C9FF0011D9FF00D1124E65773
:10195000FE4F4081518162817381848195810E9413
:10196000830C2196C770E5CF4091BA015091BB011D
:101970006091BC017091BD018091BE019091BF0149
:101980000C94830C1F93CF93DF938091BF01807FD2
:10199000C1F48091BC018823A1F080918801C0919D
:1019A00089016091BA017091BB014091BD015091D4
:1019B000BE01D62FD723DA01A095B09516E0C81343
:1019C00004C0DF91CF911F91089590E0411551051A
:1019D00011F0DF3F31F401968770F1CF2A0F3B1FE2
:1019E00017C0189FF001199FF00D1124E657FE4F04
:1019F00021812713F0CF20812613EDCF22812111E1
:101A0000EACF238134812417350740F3241B350B9B
:101A1000283C310500F72091BF012F7020612093F1
:101A2000BF0126E0289FF001299FF00D1124E15706
:101A3000FE4F80818F70806180838AEB91E00E94ED
:101A40000D0CDF91CF911F910C94930CBF92CF920C
:101A5000DF92EF92FF920F931F93CF93DF93CDB757
:101A6000DEB761970FB6F894DEBF0FBECDBF8C0115
:101A700085E0F801DE011D9601900D928A95E1F74F
:101A8000D8014C9111965C9111971296EC90129797
:101A90008091BD019091BE01009709F47FC1209112
:101AA000BA013091BB01622F63236F3F09F476C105
:101AB0001396CD90DC90B090BC01BB2009F411C10D
:101AC000C816D906D0F1F601E81BF90BCF01FF24A7
:101AD000F394883C910508F0F12C8091BF01982F78
:101AE000907FFF2009F4B8C091117FC0FE2C351300
:101AF00029C0241327C0E11025C08F708061809316
:101B0000BF010E94B40C8AEB91E00E940D0C809101
:101B1000BF01D80115968C938F2D61960FB6F8945E
:101B2000DEBF0FBECDBFDF91CF911F910F91FF9010
:101B3000EF90DF90CF90BF900895809590958C0D99
:101B40009D1DC5CFCD2829F0852F84238F3F09F017
:101B500041C180E0B82FB170DB2E80FF3CC0809186
:101B600088012091890136E0821315C04D875E8778
:101B70008D859E850E94A011292F22952F702230DD
:101B8000F0F0243018F59F70F1F0F8019581907F06
:101B9000D1F4D12C1EC090E0389FF001399FF00D98
:101BA0001124E657FE4F6181651306C060816413FE
:101BB00003C06281E6120FC001968770D5CF9F7077
:101BC00011F0882331F3805E883018F3C8010E9439
:101BD0000D0CFD2CA1CFEE2009F49ECF8091BF010A
:101BE00081608093BF01F12C97CF351306C0241379
:101BF00004C0D801EE2009F49AC04D875E878D8518
:101C00009E850E94700C882319F1EE2009F18091C5
:101C1000BF01803270F02091BA013091BB0138874A
:101C20002F831986DB86CA868C87CE0107960E9491
:101C30000D0C86E0F801AAEBB1E001900D928A95B7
:101C4000E1F70E94C20C0E94B40CFF24F39464CF0D
:101C5000C8010E940D0CF9CF911113C07C2DD98AB7
:101C6000C88A6E2D89890E94740C8AEB91E00E94CB
:101C70000D0C86E0EAEBF1E0DF011D928A95E9F7B1
:101C800063C0351312C0241310C0E1100EC0F80158
:101C90008583C8010E940D0CEAEBF1E086E0DF01CC
:101CA0001D928A95E9F7FB2C37CF4D875E878D858E
:101CB0009E850E94700C882359F2EE2049F2809193
:101CC000BF01803208F4B5CF2091BA013091BB0139
:101CD0003A8329831B82DD82CC828E83CE010196DA
:101CE000A6CFC816D90698F1F601E81BF90BCF016B
:101CF000F12C883C910508F049C0FE2CEE2009F437
:101D0000A7CF351332C0241330C08091BF0180FDAE
:101D100023C0982F907F01F1D80115968C931597C9
:101D2000903F39F0982F907F905F8F70892B159698
:101D30008C93C8010E940D0C86E0F801AAEBB1E07B
:101D400001900D928A95E1F70E94B40CE5CE809542
:101D500090958C0D9D1DCCCF86E0F801AAEBB1E0EB
:101D600001900D928A95E1F7D7CE4D875E878D85DC
:101D70009E850E94700C81115CCF8091BF018160B3
:101D80008093BF01C8010E940D0CC6CE7C2DD98A5C
:101D9000C88A6E2D89890E94740C6BCFEE2009F4DD
:101DA00057CF4D875E878D859E850E94700CF82EDB
:101DB000882309F44DCF86E0F801AAEBB1E0019049
:101DC0000D928A95E1F78AEB91E00E9407090E9443
:101DD000C20CBACF81E08E25BDCE1F93CF93DF9387
:101DE000CDB7DEB72C970FB6F894DEBF0FBECDBFD0
:101DF0004F83588769877A878B879C87CE010796A0
:101E00000E94260D882369F08A859B85892B39F0ED
:101E10004F815885842F85238F3F09F071C016E0CC
:101E20005FC086E0FE013796DE01119601900D92AB
:101E30008A95E1F78A859B85892B89F388859F811F
:101E400089238F3F61F32091890130E0C901019618
:101E500087709927409188014817190671F40E94EC
:101E60004D0C109289011092880186E0EAEBF1E0B6
:101E7000DF011D928A95E9F7D2CF96E0929FD001BB
:101E8000939FB00D1124A657BE4FFE0131960190CD
:101E90000D929A95E1F7809389010E94930CBFCF30
:101EA000819FC001112486579E4F0E94260D8823D2
:101EB000E9F0E09188011E9FF0011124E657FE4FE2
:101EC0004081518162817381848195810E94830C5C
:101ED0008091880190E0019687709927809388010E
:101EE00080918801909189018913DACF2C960FB6E1
:101EF000F894DEBF0FBECDBFDF91CF911F91089543
:101F000069857A858B859C850E94830C88CFEF92AA
:101F1000FF920F931F93CF93DF938C01892B81F056
:101F2000F12CEE24E394E8012196F80184918437A2
:101F300070F4843008F05FC08130B1F08230A1F1DC
:101F4000DF91CF911F910F91FF90EF90089585370A
:101F500009F44CC008F43DC09CE7980F903780F717
:101F60008F770E945A0949C00E5F1F4FFE0184916E
:101F700090E2980F983060F48770FE2D01C0FF0F3B
:101F80008A95EAF78F2F0E9419120E94421202C00E
:101F90000E940C098F2D815030F2EFE9FFE031975C
:101FA000F1F700C00000F7CF0E5F1F4FFE018491D4
:101FB00090E2980F983050F48770FE2D01C0FF0F0B
:101FC0008A95EAF78F2F0E941F12DFCF0E945A09CD
:101FD000E1CF0E5F1F4FFE01C491C150D8F28FE9CF
:101FE0009FE00197F1F700C00000F7CF0E5F1F4F91
:101FF000FE01F490CFCF0E940C098E01CBCF089543
:102000000C94FF0F0E9400106093C9017093CA01E5
:102010008093CB019093CC010C94370C08950C94D1
:1020200002100F931F930091C9011091CA012091D2
:10203000CB013091CC01602B712B822B932B1F9104
:102040000F910C9402100F931F930091C9011091EE
:10205000CA012091CB013091CC01602371238223EE
:1020600093231F910F910C9402100F931F930091D3
:10207000C9011091CA012091CB013091CC01602798
:102080007127822793271F910F910C9402100C94B3
:10209000FF0F0C9447100E9449106093C501709384
:1020A000C6018093C7019093C8010C94370C60E07F
:1020B00070E0CB010C944B100F931F9341E050E064
:1020C00060E070E08A019B0104C0000F111F221F15
:1020D000331F8A95D2F7C901B8011F910F910C9453
:1020E0004B100F931F9341E050E060E070E004C09C
:1020F000440F551F661F771F8A95D2F78091C5013F
:102100009091C601A091C701B091C8018A019B01BD
:10211000082B192B2A2B3B2BC901B8011F910F91BA
:102120000C944B100F931F9341E050E060E070E07F
:1021300004C0440F551F661F771F8A95D2F7CB0145
:10214000BA0160957095809590950091C5011091A8
:10215000C6012091C7013091C801602371238223F9
:1021600093231F910F910C944B100F931F9341E0F9
:1021700050E060E070E004C0440F551F661F771FF9
:102180008A95D2F78091C5019091C601A091C701AF
:10219000B091C8018A019B01082719272A273B27EC
:1021A000C901B8011F910F910C944B100F931F930D
:1021B0000091C5011091C6012091C7013091C8015D
:1021C000602B712B822B932B1F910F910C944B1032
:1021D0000F931F930091C5011091C6012091C70173
:1021E0003091C80160237123822393231F910F91A3
:1021F0000C944B100F931F930091C5011091C601D1
:102200002091C7013091C801602771278227932749
:102210001F910F910C944B100895990F890F982FCF
:10222000977041E001C0440F9A95EAF7869586952C
:10223000869595E0899FF0011124E054FE4F30E02F
:1022400020E070E05191DF011197CB01022E02C016
:10225000969587950A94E2F7817081958527842366
:1022600085278C932F5F3F4F2530310559F708950F
:10227000990F890F982F977086958695869525E0FA
:10228000829FF0011124E054FE4F50E040E080E0D6
:10229000219130E0092E02C0369527950A94E2F785
:1022A00021703327042E01C0220F0A94EAF7822BF3
:1022B0004F5F5F4F4530510559F70895BF92CF9258
:1022C000DF92EF92FF920F931F93CF93DF938C01D6
:1022D000C090C501D090C601E090C701F090C80140
:1022E0008091C9019091CA01A091CB01B091CC011C
:1022F000C82AD92AEA2AFB2ACFE1D0E0BC2ED7018E
:10230000C6010C2E04C0B695A795979587950A949B
:10231000D2F780FD0EC0219788F7B12C8B2DDF916D
:10232000CF911F910F91FF90EF90DF90CF90BF90D2
:102330000895B8018C2F0E94A802019761F3EECF97
:10234000CF93DF93EC010E945E11BE01DF91CF912C
:102350000C94A8021F93CF93DF93EB019091870118
:10236000992331F0CB01DF91CF911F910C94A011F3
:10237000882379F0CB010E945E11182F682FCE01BF
:102380000E940D11BE01812FDF91CF911F910C94FE
:10239000A802CB010E943811182FF4CF682F80912A
:1023A0000001909101010C94DD13682F80910001D0
:1023B000909101010C94E81380910001909101012A
:1023C0000C94F3138091CD0185958595859508959D
:1023D0008091CD01877008959091CD01977081E033
:1023E00009F480E008958091F10108959091F10140
:1023F000892B8093F101089580959091F1019823A4
:102400009093F10108958093F10108951092F101E4
:1024100008959091F001892B8093F00108958095A3
:102420009091F00198239093F00108951092F0019B
:1024300008959091EF01892B8093EF010895809585
:102440009091EF0198239093EF0108951092EF017E
:1024500008958091CE01089508950C942C129091C6
:10246000CE01981721F08093CE010C942D1208957F
:102470008091CE01882329F01092CE0180E00C9447
:102480002D120895E0910001F09101018091F10178
:102490008083E0910001F091010180819091F00131
:1024A000892B8083E0910001F0910101808190915E
:1024B000EF01892B80839091CE01992381F0E091E7
:1024C0000001F09101018081892B808380910001BE
:1024D000909101010E94491381110E94381280914C
:1024E0000001909101010C94F30708950C9475126A
:1024F00098E0899F90011124622B6093CD010E9486
:1025000071108091CD018595859585950C947612F5
:102510001092CD0180E00C9476129091CD018095BF
:1025200089238093CD01282F277071F4282F082E3E
:10253000000C330B9217130639F085958595859518
:102540000E9492100C948812089590E080E00E94FE
:10255000C01E21E08C3E9E4F09F020E0822F08959E
:1025600082E090E00C94B81E83E090E00C94B81EDA
:10257000CF9384E090E00E94B81EC82F81E290E0E3
:102580000E94B81E982F8C2FCF910895CF93C92FFA
:10259000682F84E090E00E94C61E6C2F81E290E0DC
:1025A000CF910C94C61EAB01BC018FE090E00C945F
:1025B000D81EAB01BC0183E190E00C94D81E60E012
:1025C00070E0CB010C94D91260E070E0CB010E9466
:1025D000D3120C94DF126CEE7EEF90E080E00E944C
:1025E000E41E60E082E090E00E94C61E60E083E0AE
:1025F00090E00E94C61E1092C9011092CA0110926A
:10260000CB011092CC0160E084E090E00E94C61EF5
:1026100060E081E290E00E94C61E60E085E090E00C
:102620000E94C61E60E086E090E00E94C61E6FEF2A
:1026300087E090E00E94C61E40E050E0BA0188E0CA
:1026400090E00E94D81E60E08DE090E00E94C61EDF
:1026500040E050E0BA0188E190E00E94D81E60E0BE
:1026600087E190E00E94C61E40E050E0BA018CE194
:1026700090E00E94D81E60E080E290E00E94C61EBA
:102680000C94E4120C94EB12682F8EE090E00C9402
:10269000C61EFC01329680911401882321F080919E
:1026A00032029EE187FF96E080E0915008F40895A1
:1026B00021912223D1F38F5FF8CF662301F120917E
:1026C00014012223F1F02091320227FF1AC0462F75
:1026D0004695469546954E3190F4677021E030E07E
:1026E00002C0220F331F6A95E2F7840F911DFC018F
:1026F000828190E02823392381E0232B69F480E054
:102700000895FC01329608962191261721F0E817CA
:10271000F907D1F7F4CF81E008959C01FC013296CE
:102720009FEF80E04191461751F09F3F19F441110E
:1027300001C0982F8F5F8630A9F79F3F09F4089555
:10274000290F311D97FD3A95F90162830895FC0127
:10275000329608962191261303C0DF0111971C922F
:10276000E817F907B9F70895E62FE695E695E69597
:10277000EE3168F4E80FF92FF11D677021E030E0C9
:1027800001C0220F6A95EAF78281822B8283089525
:10279000E62FE695E695E695EE3170F4E80FF92F11
:1027A000F11D677021E030E001C0220F6A95EAF761
:1027B00020958281282322830895209114012223C9
:1027C00029F02091320227FD0C94B4130C948D1340
:1027D00020911401222329F02091320227FD0C942C
:1027E000C8130C94A713FC0132968091140188231E
:1027F00051F08091320287FF06C08EE1DF011D9209
:102800008A95E9F7089586E0F9CF089508950C9424
:1028100006140E94071480913802843049F1109206
:10282000F30188E190E020E40FB6F894A895809336
:1028300060000FBE2093600080E00E9433020E947F
:10284000071483B7817F846083BF83B7816083BFB0
:102850007894889583B78E7F83BF0FB6F894A89538
:1028600080916000886180936000109260000FBECC
:10287000089508950E9405140E94B7040E94391417
:1028800080E00E949D0491E0811101C090E0892FB9
:10289000089508950C9449140E944D0C0E94E70776
:1028A0000E9433020C944A141F921FB61F921124E7
:1028B0008F939F93AF93BF938091F301811113C0C6
:1028C00080912E0290912F02A0913002B09131029E
:1028D0004196A11DB11D80932E0290932F02A093CB
:1028E0003002B0933102BF91AF919F918F911F90B1
:1028F0001FBE1F90189582E084BD93E095BD9AEFAE
:1029000097BD80936E0008952FB7F89480912E02A2
:1029100090912F02A0913002B09131022FBF089503
:10292000CF92DF92EF92FF920F931F932FB7F894FD
:1029300040912E0250912F0260913002709131022D
:102940002FBF6A017B01EE24FF248C0130E020E0E0
:10295000C016D106E206F30650F0481B590BCA0117
:102960001F910F91FF90EF90DF90CF90089541500D
:102970005109F3CF78941F921FB61F9211248F93A1
:102980009F93AF93BF9380912E0290912F02A091BD
:102990003002B09131020196A11DB11D80932E022B
:1029A00090932F02A0933002B0933102BF91AF9168
:1029B0009F918F911F901FBE1F90189587E797E7F3
:1029C000909301088093000888E19AE00FB6F8948C
:1029D000A895809360000FBE90936000FFCF0E9487
:1029E000A512811102C00E9442130E94B01280936E
:1029F000F2010E94B81290933302809332020E9437
:102A0000B412682F70E090E080E00C940F10809179
:102A1000FB0180FF12C06091070185E0689FB00153
:102A20001124759567957595679560387105A8F5BA
:102A300061157105A1F1862F089581FF09C060918C
:102A4000070185E0689FB001112475956795EDCF6A
:102A50006091070182FD0AC08091FA018823D1F0BC
:102A60009091060160910701891728F085E0689F21
:102A7000B0011124DACF869FB001112485E0869F32
:102A80009001879F300D1124692F70E0C9010E94C9
:102A90008A1ECBCF65E070E0CECF8FE7089581E04E
:102AA00008958091FB0180FF0CC06091030170E0EC
:102AB00075956795759567956115710549F1862F2F
:102AC000089581FF06C06091030170E075956795D8
:102AD000F3CF6091030182FD0BC09091FA0199231D
:102AE000A1F06091020180910301961738F0682FE0
:102AF00070E06038710500F38FE70895899FC00189
:102B0000112470E00E948A1EF4CF61E070E0D7CFFC
:102B100081E00895803F31F40E94071581958093EC
:102B2000FF010895813F19F40E940715F8CF823FF5
:102B300031F40E94071581958093FE010895833F2B
:102B400019F40E940715F8CF893F29F40E94511506
:102B50008093000208958A3F21F40E9451158195C7
:102B6000F7CF8B3F31F40E9451158195809301027C
:102B700008958C3F19F40E945115F8CF843F31F429
:102B80008091FD0181608093FD010895853F21F4CE
:102B90008091FD018260F7CF863F21F48091FD0195
:102BA0008460F1CF873F21F48091FD018860EBCFF5
:102BB000883F21F48091FD018061E5CF8D3F31F4A4
:102BC0008091FB0181608093FB0108958E3F21F489
:102BD0008091FB018260F7CF8F3FB9F78091FB01B5
:102BE0008460F1CF9091FE01803F41F48091FF011C
:102BF00087FD1092FF01992371F00895813F29F418
:102C00008091FF011816ACF3F6CF823F81F497FF55
:102C1000F2CF1092FE018091FF0190910002892B6A
:102C200090910102892B49F71092FA010895833F90
:102C300019F4191674F3DFCF893F39F4809100023B
:102C40001816CCF610920002D6CF8A3F29F4809154
:102C5000000287FFD0CFF6CF8B3F39F4809101027D
:102C600087FFC9CF10920102C6CF8C3F29F4809113
:102C700001021816BCF3BFCF843F31F48091FD01EF
:102C80008E7F8093FD01B7CF853F21F48091FD01B8
:102C90008D7FF7CF863F21F48091FD018B7FF1CFAF
:102CA000873F21F48091FD01877FEBCF883F21F49E
:102CB0008091FD018F7EE5CF8D3F31F48091FB0146
:102CC0008E7F8093FB0197CF8E3F21F48091FB0193
:102CD0008D7FF7CF8F3F09F08ECF8091FB018B7FE7
:102CE000F0CF8CEF91E00E940D080E948414909325
:102CF000F9018093F8010895CF93DF9300D000D0BD
:102D000000D0CDB7DEB786E0ECEFF1E0DE01119642
:102D100001900D928A95E1F78091FE019091FF015B
:102D2000892B81F08091F6019091F7010E94901417
:102D3000AC019091FA01992331F180910801841737
:102D4000150670F18091000290910102892B91F09B
:102D50008091F4019091F5010E949014AC01909142
:102D6000FA01992309F478C08091040184171506AB
:102D700008F480C026960FB6F894DEBF0FBECDBF14
:102D8000DF91CF910895209109018AE0289F900159
:102D9000112424173507B0F69F5F9093FA0102C003
:102DA0009F3FD1F710920002109201028091FE0124
:102DB000181624F40E9407158093FE018091FE01ED
:102DC00087FF05C00E94071581958093FE018091C1
:102DD000FF01181624F40E9407158093FF018091CB
:102DE000FF0187FF05C00E94071581958093FF01B1
:102DF0003091FE013323A1F02091FF01222381F0C5
:102E000045EB3403C00111249923F1F09093FE01A6
:102E100045EB2403900111243323D1F03093FF01BB
:102E20000E9471168091F8019091F9019093F70139
:102E30008093F60186E0FE013196ACEFB1E001909F
:102E40000D928A95E1F77ECF81E08093FE01E0CF7D
:102E500081E08093FF01E4CF209105018AE0289F63
:102E6000900111242417350708F084CF9F5F9093B9
:102E7000FA0102C09F3FD1F71092FE011092FF01AC
:102E800080910002181624F40E94511580930002CC
:102E90008091000287FF05C00E94511581958093A3
:102EA000000280910102181624F40E9451158093AB
:102EB00001028091010287FF05C00E945115819592
:102EC00080930102309100023323A1F0209101028E
:102ED000222381F045EB3403C00111249923F1F042
:102EE0009093000245EB2403900111243323D1F089
:102EF000309301020E9471168091F8019091F901BE
:102F00009093F5018093F40186E0FE013196ACEFD9
:102F1000B1E001900D928A95E1F72CCF81E080938A
:102F20000002E0CF81E080930102E4CF86E0ECEF85
:102F3000F1E0DF011D928A95E9F71092FA011092F3
:102F4000FB010895809122020895CF93DF9300D072
:102F50000F92CDB7DEB790913802943019F589837E
:102F60007B836A8382E08093E9008FEF9091E80091
:102F7000815095FD06C095ED9A95F1F700008111FD
:102F8000F5CF8091E80085FF0DC050E040E063E0A0
:102F900070E0CE0101960E94F9198091E8008E77C9
:102FA0008093E8000F900F900F90DF91CF910895DC
:102FB000CF93DF93EC010E94DC19823011F0843052
:102FC00031F4BE0184E0DF91CF910C94A517DF911D
:102FD000CF910895BC0183E00C94A517CF93DF93A4
:102FE000EC010E94DC19823011F08430F9F482E0A7
:102FF0008093E9008FEF9091E800815095FD06C025
:1030000095ED9A95F1F700008111F5CF8091E800D8
:1030100085FF0CC050E040E066E070E0CE010E9409
:10302000F9198091E8008E778093E800DF91CF91C5
:103030000895CF93DF93EC010E94DC19823011F0E8
:103040008430B9F5809114018823B1F18091320266
:1030500087FF32C060E282E08093E9008FEF9091B9
:10306000E800815095FD06C095ED9A95F1F70000B6
:103070008111F5CF8091E80085FF1BC0809114017C
:1030800070E050E040E0811104C050E040E068E0B2
:1030900070E0CE010E94F9198091E8008E7780934C
:1030A000E80080E2FE01A2E0B2E001900D928A9574
:1030B000E1F7DF91CF91089568E081E0CDCF809175
:1030C0003702811109C00E94891B0E94E61B809172
:1030D000E20084608093E200089510923702089520
:1030E000089508950C944C1442E061EC81E00E9434
:1030F000051B42E261EC82E00C94051B80913A02D0
:10310000833009F45FC030F48130C1F1823009F4BA
:103110009BC008958A3009F487C08B3009F46DC0D4
:10312000893009F04EC080913902813209F049C0DE
:1031300080913D0290913E02029708F042C080913A
:10314000E800877F8093E8008091E80082FF35C027
:103150009091F3008091F200029729F48091F100A0
:103160008B7F813021F48091F10080932202809145
:10317000E8008B778093E8000C94391B809139022A
:10318000813AF9F48091E800877F8093E80080918C
:103190003D0290913E02892B61F460E282E092E070
:1031A00070E00E94481A8091E8008B778093E800D5
:1031B000089560E090E080E0F3CF809138028111C3
:1031C000C3CF089580913902813AD9F780913D02A9
:1031D00090913E02892BA9F78091E800877F809328
:1031E000E8008091E80080FFFCCF8091140180937B
:1031F000F1008091E8008E77BDCF80913902813255
:1032000001F780913D0290913E02892BD1F6809189
:10321000E800877F8093E8000E94391B80913B0281
:10322000809314010C944D0C80913902813249F63F
:103230008091E800877F8093E8000E94391B80918D
:103240003C0280932302089580913902813A09F06B
:10325000B8CF8091E800877F8093E8008091E800F4
:1032600080FFFCCF80912302C2CF84B7877F84BFC9
:103270000FB6F894A89580916000886180936000F3
:10328000109260000FBE80E890E00FB6F894809333
:103290006100909361000FBE0E9455080E94891B37
:1032A0000E94E61B8091E20084608093E2007894A3
:1032B0000E946F1E0E945D088AE091E00E94E20772
:1032C00080913802853019F00E946508F9CF0E947C
:1032D000091480913602882399F30E943A148823B6
:1032E00079F30E94E319ECCF0C947619292F332738
:1032F0002330310519F168F42130310509F44AC051
:103300002230310509F44BC090E080E030E020E04D
:1033100028C02132310579F122323105A9F780E444
:1033200090E023EE31E061157105D9F08CEB90E06F
:1033300027E231E061307105A1F0E6CF99278130B5
:10334000910599F0009741F08230910589F003973B
:10335000D9F6E0EBF0E002C0E6EDF0E0849190E019
:103360009F01FA01318320830895E4ECF0E0F6CF69
:10337000E6EBF0E0F3CF89E090E02CEE30E0611571
:10338000710579F389E090E025E031E06130710565
:1033900041F3BACF82E190E025E131E0E2CF8BE367
:1033A00090E02AED30E0DDCF80913802843011F4D6
:1033B00082E0089581E0089580912402811102C085
:1033C0000C94D419089580E189BD82E189BD09B4C6
:1033D00000FEFDCF8091D8008F7D8093D800809132
:1033E000E00082608093E0008091E00081FDFCCFEE
:1033F0000895AF92BF92CF92DF92FF920F931F93E7
:10340000CF93DF936C01EB018A010E94581BF82EC9
:10341000811123C00115110539F0F80180819181D6
:10342000C81BD90BC80ED91EB12CA12C2097A9F00E
:103430008091E80085FD22C08091E8008E7780931E
:10344000E80001151105A1F0F80180819181A80E15
:10345000B91EB182A08285E0F82E8F2DDF91CF9129
:103460001F910F91FF90DF90CF90BF90AF90089584
:103470000E94581B8823D1F2F82EEFCFF6018191DC
:103480006F018093F1002197FFEFAF1ABF0ACECFF3
:10349000FC0180913F029091400286179707A0F0AF
:1034A0006115710529F49091E8009E779093E800EA
:1034B00090E06115710551F4911108C08091E80008
:1034C00082FF34C080E00895BC01F2CF80913802C1
:1034D0008823C1F18530C1F18091E80083FD30C0BF
:1034E0008091E80082FDEACF8091E80080FFE1CF83
:1034F0008091F3002091F200382F6115710519F0C9
:103500002830310558F091E02830310509F090E07D
:103510002091E8002E772093E800CBCF8191809313
:10352000F100615071092F5F3F4FE7CF8091380262
:10353000882341F0853041F08091E80083FFBECFC1
:1035400081E0089582E0089583E00895FC01809170
:103550003F029091400286179707A0F06115710510
:1035600029F48091E8008E778093E80090E061155F
:10357000710551F4911108C08091E80082FF35C0B7
:1035800080E00895BC01F2CF809138028823C9F110
:103590008530C9F18091E80083FD31C08091E80059
:1035A00082FDEACF8091E80080FFE1CF8091F300B7
:1035B0002091F200382F6115710519F0283031057E
:1035C00058F091E02830310509F090E08091E80052
:1035D0008E778093E800CBCF84918093F100319671
:1035E000615071092F5F3F4FE6CF809138028823E9
:1035F00041F0853041F08091E80083FFBDCF81E04C
:10360000089582E0089583E00895982F973028F078
:103610008F708093E90081E008959093E900242F52
:10362000762F50E0981731F07091EC002091ED006A
:103630005091F00021FD02C09F5FE8CF3091EB0078
:103640003E7F3093EB003091ED003D7F3093ED00F5
:103650003091EB0031603093EB007093EC002093DD
:10366000ED005093F0002091EE0027FDE5CF80E0C3
:1036700008958091390287FF13C08091E80082FF8E
:1036800006C08091E8008B778093E80004C08091A9
:1036900038028111F2CF0895809138028823D9F33E
:1036A0008091E80080FFF8CF8091E8008E77ECCF22
:1036B0002091E4003091E50095E6A9012091EC000D
:1036C000822F817020FF06C08091E80080FF06C035
:1036D00080E008952091E80022FD1AC08091380210
:1036E000882389F0853089F08091EB0085FD0FC03B
:1036F0002091E4003091E50042175307F9F2915010
:10370000E1F684E0089582E0089583E0089581E081
:1037100008950E94F71B0E94FF1BE0EEF0E08081FD
:1037200081608083E8EDF0E080818F77808319BC31
:10373000A7EDB0E08C918E7F8C9380818F7E80830B
:103740001092370208950F931F93CF93DF930E9437
:10375000F71B0E94FF1BC8EDD0E088818F7788831C
:1037600088818068888388818F7D888319BC1092C6
:10377000380210923402109236021092350200EE96
:1037800010E0F80180818B7F80838881816088834D
:1037900042E060E080E00E94051BE1EEF0E0808105
:1037A0008E7F8083E2EEF0E0808181608083808183
:1037B00088608083F80180818E7F8083888180612A
:1037C0008883DF91CF911F910F910895E8EDF0E08C
:1037D00080818F7E8083E7EDF0E08081816080834F
:1037E00084E082BF81E0809337020C94A31BE8ED54
:1037F000F0E080818E7F80831092E2000895109225
:10380000DA001092E10008951F920F920FB60F9206
:1038100011242F933F934F935F936F937F938F93D5
:103820009F93AF93BF93EF93FF938091E10082FF4B
:103830000BC08091E20082FF07C08091E1008B7F86
:103840008093E1000E946E1E8091DA0080FF19C013
:103850008091D80080FF15C08091DA008E7F809320
:10386000DA008091D90080FF96C080E189BD82E1B5
:1038700089BD09B400FEFDCF81E0809338020E942B
:103880005F188091E10080FF19C08091E20080FF05
:1038900015C08091E2008E7F8093E2008091E2006B
:1038A00080618093E2008091D80080628093D8008C
:1038B00019BC85E0809338020E9471188091E10064
:1038C00084FF2BC08091E20084FF27C080E189BD86
:1038D00082E189BD89B5982F917080FFFBCF8091DF
:1038E000D8008F7D8093D8008091E1008F7E8093F7
:1038F000E1008091E2008F7E8093E2008091E200FF
:1039000081608093E20080913402882309F449C0E9
:1039100084E0809338020E9472188091E10083FF56
:1039200029C08091E20083FF25C08091E100877F5C
:103930008093E10082E080933802109234028091FB
:10394000E1008E7F8093E1008091E2008E7F809382
:10395000E2008091E20080618093E20042E060E05A
:1039600080E00E94051B8091F00088608093F00049
:103970000E947018FF91EF91BF91AF919F918F912D
:103980007F916F915F914F913F912F910F900FBE5B
:103990000F901F90189519BC109238020E946D1854
:1039A00070CF8091E30087FD93E090933802B3CF0E
:1039B0001F920F920FB60F9211242F933F934F93A4
:1039C0005F936F937F938F939F93AF93BF93CF93A7
:1039D000DF93EF93FF93D091E900DF708091EC00CB
:1039E000C82FC17080FDC0E81092E9008091F000FE
:1039F000877F8093F00078940E941C1D1092E9004C
:103A00008091F00088608093F000CD2BCF70C09340
:103A1000E900FF91EF91DF91CF91BF91AF919F911D
:103A20008F917F916F915F914F913F912F910F9067
:103A30000FBE0F901F9018951F93CF93DF93CDB7B4
:103A4000DEB7AA970FB6F894DEBF0FBECDBF89E3ED
:103A500092E02091F100FC012193CF01F2E081344A
:103A60009F07B9F70E947E188091E80083FF1EC16E
:103A70008091390290913A029A3008F017C1E92FEB
:103A8000F0E0E65EF04E0C949E1E803899F082388D
:103A900009F00CC180913D028F70873008F006C19B
:103AA0008093E9008091EB0085FB882780F91092D4
:103AB000E90006C080913502909136029111826032
:103AC0009091E800977F9093E8008093F100109226
:103AD000F1008091E8008E77E5C0882309F4D3C017
:103AE000823009F0E3C080913B028111D6C0809101
:103AF0003D028F702FEF280F263008F0D7C080933B
:103B0000E9002091EB0020FFC8C0933031F4809190
:103B1000EB0080628093EB00C0C09091EB0090615D
:103B20009093EB0021E030E001C0220F8A95EAF784
:103B30002093EA001092EA008091EB008860EACFBF
:103B40008111B4C010913B021F778091E30080780F
:103B5000812B8093E3008091E800877F8093E800C9
:103B60000E94391B8091E80080FFFCCF8091E30028
:103B700080688093E30082E0111183E08093380233
:103B800095C08058823008F091C080913B0290919E
:103B90003C028C3D23E09207A1F583E08A838AE210
:103BA00089834FB7F894DE01139620E03EE051E29E
:103BB000E32FF0E050935700E49120FF03C0E2951B
:103BC000EF703F5FEF708E2F90E0EA30C0F0C79645
:103BD0008D939D932F5F243159F74FBF8091E8005B
:103BE000877F8093E8006AE270E0CE0101960E9430
:103BF000481A8091E8008B778093E80057C0C09600
:103C0000E7CF60913D0270913E02AE014F5F5F4F82
:103C10000E947419BC01892B09F448C09091E800F6
:103C2000977F9093E80089819A810E94A61AE1CF3C
:103C30008038E1F58091E800877F8093E8008091EB
:103C400034028093F10045CF811130C090913B0246
:103C5000923060F58091E800877F8093E800909330
:103C600034020E94391B80913402882311F084E0D1
:103C700005C08091E30087FDFACF81E08093380290
:103C80000E94741813C080913B02813079F481E066
:103C9000933009F080E0809336021092E900809121
:103CA000E800877F8093E8000E94391B8091E8003C
:103CB00083FF0AC08091E800877F8093E8008091AD
:103CC000EB0080628093EB00AA960FB6F894DEBFFB
:103CD0000FBECDBFDF91CF911F9108950895CF936F
:103CE000809138028823A1F0C091E900CF709091B3
:103CF000EC00892F817090FD80E8C82B1092E900BC
:103D00008091E80083FD0E941C1DCF70C093E900E4
:103D1000CF91089597FB072E16F4009407D077FDF6
:103D200009D00E94A41E07FC05D03EF49095819511
:103D30009F4F0895709561957F4F0895EE0FFF1F77
:103D40000590F491E02D0994AA1BBB1B51E107C01B
:103D5000AA1FBB1FA617B70710F0A61BB70B881F1B
:103D6000991F5A95A9F780959095BC01CD010895AA
:103D7000F999FECF92BD81BDF89A992780B5089533
:103D8000A8E1B0E042E050E00C94EC1E262FF99937
:103D9000FECF92BD81BDF89A019700B4021639F0AA
:103DA0001FBA20BD0FB6F894FA9AF99A0FBE08957B
:103DB0000396272F0E94C71E0E94C61E252F0E9411
:103DC000C71E242F0C94C71E0196272F0E94C71EC2
:103DD0000C94C61EDC01CB01FC01F999FECF06C094
:103DE000F2BDE1BDF89A319600B40D9241505040B9
:103DF000B8F70895F894FFCFDD09DD09350A350AD3
:103E0000870AA30A0A0A0A0AE50A710B800B800BCB
:103E1000DC0B0A0A0A0AE50B5C0C5C0C650C650CF1
:103E2000670C650C650C650C5C0C5C0C6C0C650C13
:103E3000650C6C0C451D6D1D561E6D1D561EA01D7E
:083E4000C11D561E181E241EB0
:103E4800CF012808641E140A321EA2171918EE178B
:103E5800EA17D81701E200E900EA00B500B600B792
:103E680000CD008301CC008A019201940121022334
:103E78000224022502260227022A02B300B4006F98
:103E8800007000818283E200E900EA00B500B60014
:103E9800B700CD008301CC008A0192019401210270
:103EA800230224022502260227022A02B300B400B4
:083EB8006F007000818283009D
:00000001FF
